:100000000C945F000C9487000C9487000C9487007C
:100010000C9487000C9487000C9487000C94870044
:100020000C9487000C9487000C9487000C94870034
:100030000C9487000C9487000C9487000C94870024
:100040000C9452010C9487000C94FF030C9431041F
:100050000C9487000C9487000C9487000C94870004
:100060000C9487000C948700000000080002010037
:100070000003040700000000000000000102040863
:100080001020408001020408102001020408102002
:10009000040404040404040402020202020203032E
:1000A0000303030300000000250028002B000000CC
:1000B0000000240027002A00F7006104FD0011243D
:1000C0001FBECFEFD8E0DEBFCDBF11E0A0E0B1E0B2
:1000D000EAE6F0E102C005900D92A232B107D9F72D
:1000E00021E0A2E2B1E001C01D92A63DB207E1F716
:1000F00010E0CCEBD0E004C02297FE010E94EC059A
:10010000C83BD107C9F70E9490050C9428080C94AD
:1001100000008EBD00000DB407FEFDCF8EB5089522
:1001200026E040E855E260E070E085E391E00E945F
:100130009D030E941C0161E08FE00E944B0261E080
:100140008AE00E944B0261E089E00E944B0261E07C
:1001500089E00E94840260E08FE00E94840268ECE3
:1001600070E085E291E00E94FD0483E690E09093C8
:100170002301809322010895CF93DF938091220180
:1001800090912301019797FF02C083E690E090933E
:1001900023018093220160E08AE00E948402809122
:1001A000220190912301CAE0D0E0BE010E94A00587
:1001B0008A5F9E4FFC0180810E948900809122010C
:1001C00090912301BE010E94A0056A5F7E4FFB0152
:1001D00080810E94890061E08AE00E94840268ECCC
:1001E00070E080E090E0DF91CF910C94BF0160E17E
:1001F00071E085E291E00C943A0585E291E00C947F
:10020000CC04CF93DF93D1E085E391E00E94BA0262
:10021000892B79F085E391E00E94D302C82F682FE3
:1002200085E291E00E947C05CA3071F7D0932401E9
:10023000EBCFDF91CF910895CF93CFB7F894809112
:100240002B01811127C0EAE9F0E08491E6E8F0E0B3
:100250009491E82FF0E0EE0FFF1FE255FF4FA591BC
:10026000B4918C91892321F461E08AE00E94840298
:1002700061E08AE00E944B028CB580618CBD8CB538
:1002800080648CBD61E08DE00E944B0261E08BE0F8
:100290000E944B0280912B018F5F80932B01CFBF77
:1002A000CF9108951F920F920FB60F9211242F93A2
:1002B0003F938F939F93AF93BF9380912D01909124
:1002C0002E01A0912F01B091300130912C0123E03B
:1002D000230F2D3720F40196A11DB11D05C026E87E
:1002E000230F0296A11DB11D20932C0180932D0197
:1002F00090932E01A0932F01B09330018091310192
:1003000090913201A0913301B09134010196A11D69
:10031000B11D8093310190933201A0933301B093CA
:100320003401BF91AF919F918F913F912F910F9089
:100330000FBE0F901F9018953FB7F8948091310130
:1003400090913201A0913301B091340126B5A89B60
:1003500005C02F3F19F00196A11DB11D3FBF6627B3
:10036000782F892F9A2F620F711D811D911D42E0F8
:10037000660F771F881F991F4A95D1F70895CF926E
:10038000DF92EF92FF92CF93DF936B017C010E948B
:100390009C01EB01C114D104E104F10489F00E9435
:1003A0009F050E949C016C1B7D0B683E734090F37F
:1003B00081E0C81AD108E108F108C851DC4FEACF42
:1003C000DF91CF91FF90EF90DF90CF9008957894D8
:1003D00084B5826084BD84B5816084BD85B582604A
:1003E00085BD85B5816085BDEEE6F0E080818160E8
:1003F0008083E1E8F0E010828081826080838081E8
:1004000081608083E0E8F0E0808181608083E1EBBF
:10041000F0E0808184608083E0EBF0E080818160A7
:100420008083EAE7F0E0808184608083808182605D
:100430008083808181608083808180688083109246
:10044000C1000895833081F028F4813099F0823022
:10045000A1F008958730A9F08830B9F08430D1F444
:10046000809180008F7D03C0809180008F77809382
:100470008000089584B58F7702C084B58F7D84BDD8
:1004800008958091B0008F7703C08091B0008F7D78
:100490008093B0000895CF93DF9390E0FC01E4587F
:1004A000FF4F2491FC01E057FF4F8491882349F1CD
:1004B00090E0880F991FFC01E255FF4FA591B49180
:1004C0008C559F4FFC01C591D4919FB7611108C015
:1004D000F8948C91209582238C93888182230AC082
:1004E000623051F4F8948C91322F309583238C93A1
:1004F0008881822B888304C0F8948C91822B8C9302
:100500009FBFDF91CF9108950F931F93CF93DF93F8
:100510001F92CDB7DEB7282F30E0F901E859FF4F21
:100520008491F901E458FF4F1491F901E057FF4F0E
:1005300004910023C9F0882321F069830E942202DC
:100540006981E02FF0E0EE0FFF1FEC55FF4FA59102
:10055000B4919FB7F8948C91611103C010958123D9
:1005600001C0812B8C939FBF0F90DF91CF911F9182
:100570000F910895FC01818D228D90E0805C9F4F4A
:10058000821B91098F7399270895FC01918D828DAB
:10059000981731F0828DE80FF11D858D90E0089558
:1005A0008FEF9FEF0895FC01918D828D981761F078
:1005B000828DDF01A80FB11D5D968C91928D9F5F9A
:1005C0009F73928F90E008958FEF9FEF089587E5D6
:1005D00094E0892B49F081E091E0892B29F00E9479
:1005E000570481110C9401010895FC01848DDF01F1
:1005F000A80FB11DA35ABF4F2C91848D90E0019696
:100600008F739927848FA689B7892C93A089B18984
:100610008C9180648C93938D848D981306C002888E
:10062000F389E02D80818F7D80830895CF93DF93C0
:10063000EC01888D8823C9F0EA89FB89808185FDDA
:1006400005C0A889B9898C9186FD0FC00FB607FC3B
:10065000F5CF808185FFF2CFA889B9898C9185FF7C
:10066000EDCFCE010E94F502E7CFDF91CF91089543
:10067000CF92DF92FF920F931F93CF93DF931F923E
:10068000CDB7DEB76C0181E0D60158968C935897B0
:100690005B969C915B975C968C915C97981307C0D6
:1006A0005096ED91FC915197808185FD2EC0F60109
:1006B000038D10E00F5F1F4F0F731127F02EF6010F
:1006C000848DF81211C00FB607FCF9CFD6015096F1
:1006D000ED91FC915197808185FFF1CFC60169832F
:1006E0000E94F5026981EBCF838DE80FF11DE35A7B
:1006F000FF4F6083D6015B960C935B975296ED910A
:10070000FC915397808180620CC0D6015696ED9182
:10071000FC91579760835096ED91FC9151978081A1
:100720008064808381E090E00F90DF91CF911F91F2
:100730000F91FF90DF90CF900895BF92CF92DF92FC
:10074000EF92FF92CF93DF93EC016A017B01B22E0F
:10075000E889F98982E08083411581EE58076105B7
:100760007105A1F060E079E08DE390E0A7019601CA
:100770000E94B40521503109410951095695479508
:1007800037952795211580E1380798F0E889F98990
:10079000108260E874E88EE190E0A70196010E9463
:1007A000B4052150310941095109569547953795AE
:1007B0002795EC85FD853083EE85FF852083188E97
:1007C000EC89FD89B082EA89FB8980818061808320
:1007D000EA89FB89808188608083EA89FB8980813E
:1007E00080688083EA89FB8980818F7D8083DF91A7
:1007F000CF91FF90EF90DF90CF90BF9008951F9220
:100800000F920FB60F9211242F938F939F93EF9314
:10081000FF93E0914501F09146018081E0914B0109
:10082000F0914C0182FD12C0908180914E018F5F4A
:100830008F7320914F01821751F0E0914E01F0E04B
:10084000EB5CFE4F958F80934E0101C08081FF913C
:10085000EF919F918F912F910F900FBE0F901F904E
:1008600018951F920F920FB60F9211242F933F935A
:100870004F935F936F937F938F939F93AF93BF93A8
:10088000EF93FF9385E391E00E94F502FF91EF91D2
:10089000BF91AF919F918F917F916F915F914F9198
:1008A0003F912F910F900FBE0F901F90189585E3E9
:1008B00091E00E94BA0221E0892B09F420E0822F06
:1008C0000895109238011092370188EE93E0A0E06D
:1008D000B0E08093390190933A01A0933B01B0932B
:1008E0003C0185E191E0909336018093350185ECE0
:1008F00090E0909342018093410184EC90E09093CA
:1009000044018093430180EC90E0909346018093F2
:10091000450181EC90E0909348018093470182EC7F
:1009200090E090934A018093490186EC90E0909387
:100930004C0180934B0110924E0110924F01109286
:100940005001109251010895CF92DF92EF92FF92E1
:100950000F931F93CF93DF937C016A01EB0100E0BB
:1009600010E00C151D0571F06991D701ED91FC9116
:100970000190F081E02DC7010995892B19F00F5FD7
:100980001F4FEFCFC801DF91CF911F910F91FF90C3
:10099000EF90DF90CF900895FC01808191810C94BD
:1009A0008806CF93DF93EC0188819981009711F03D
:1009B0000E948806198218821D821C821B821A825C
:1009C000DF91CF9108950F931F93CF93DF93EC01A5
:1009D0008B016F5F7F4F888199810E941707009775
:1009E00031F0998388831B830A8381E001C080E012
:1009F000DF91CF911F910F910895CF93DF93EC0179
:100A000088819981892B29F08A819B818617970794
:100A100060F4CE010E94E304882341F08C819D8123
:100A2000892B19F4E881F981108281E0DF91CF915F
:100A30000895EF92FF920F931F93CF93DF93EC01F2
:100A40007B018A01BA010E94FD04811104C0CE011C
:100A50000E94D10407C01D830C83B701888199814E
:100A60000E94EA07CE01DF91CF911F910F91FF9075
:100A7000EF900895FC011182108213821282158278
:100A800014826115710559F0FB0101900020E9F70E
:100A9000AF0141505109461B570B0C94190508959D
:100AA000EF92FF920F931F93CF93DF93EC017B01A3
:100AB0000C811D816115710511F480E016C041158E
:100AC000510591F0040F151FB8010E94FD04882301
:100AD000A1F3288139818C819D81B701820F931FF9
:100AE0000E94EA071D830C8381E0DF91CF911F9163
:100AF0000F91FF90EF900895CF93DF9300D0CDB783
:100B0000DEB769831A8241E050E0BE016F5F7F4F1C
:100B10000E9450050F900F90DF91CF910895089596
:100B20000E94E7010E948F050E949000C7EED2E06C
:100B30000E94BC002097E1F30E94E702F9CF0895DC
:100B400097FB072E16F4009407D077FD09D00E947A
:100B5000D60507FC05D03EF4909581959F4F0895EA
:100B6000709561957F4F0895A1E21A2EAA1BBB1BB9
:100B7000FD010DC0AA1FBB1FEE1FFF1FA217B30769
:100B8000E407F50720F0A21BB30BE40BF50B661F7F
:100B9000771F881F991F1A9469F760957095809543
:100BA00090959B01AC01BD01CF010895AA1BBB1B11
:100BB00051E107C0AA1FBB1FA617B70710F0A61B5D
:100BC000B70B881F991F5A95A9F780959095BC017E
:100BD000CD010895EE0FFF1F0590F491E02D0994CB
:100BE000CF93DF938230910510F482E090E0E091A2
:100BF000D401F091D50120E030E0A0E0B0E03097E2
:100C000039F14081518148175907B8F04817590701
:100C100071F482819381109729F013969C938E939F
:100C200012972CC09093D5018093D40127C0211531
:100C3000310531F04217530718F0A901DB0101C05B
:100C4000EF019A01BD01DF010280F381E02DD7CFD2
:100C500021153105F9F0281B390B2430310580F4BA
:100C60008A819B816115710521F0FB019383828349
:100C700004C09093D5018093D401FE01329644C004
:100C8000FE01E20FF31F81939193225031093983C2
:100C900028833AC02091D2013091D301232B41F413
:100CA00020910201309103013093D3012093D201AE
:100CB00020910001309101012115310541F42DB73A
:100CC0003EB74091040150910501241B350BE09182
:100CD000D201F091D301E217F307A0F42E1B3F0BD2
:100CE0002817390778F0AC014E5F5F4F241735079E
:100CF00048F04E0F5F1F5093D3014093D201819370
:100D0000919302C0E0E0F0E0CF01DF91CF91089530
:100D1000CF93DF93009709F487C0FC0132971382C9
:100D20001282C091D401D091D501209781F4208105
:100D30003181280F391F8091D2019091D301821700
:100D4000930779F5F093D301E093D2016DC0DE01F2
:100D500020E030E0AE17BF0750F412964D915C9141
:100D600013979D014115510509F1DA01F3CFB383C2
:100D7000A28340815181840F951F8A179B0771F4CC
:100D80008D919C911197840F951F0296918380837A
:100D900012968D919C91139793838283211531052F
:100DA00029F4F093D501E093D4013EC0D901139604
:100DB000FC93EE9312974D915D91A40FB51FEA1726
:100DC000FB0779F480819181840F951F0296D901E8
:100DD00011969C938E938281938113969C938E930C
:100DE0001297E0E0F0E08A819B81009719F0FE0104
:100DF000EC01F9CFCE01029628813981820F931F31
:100E00002091D2013091D3012817390769F4309726
:100E100029F41092D5011092D40102C013821282DB
:100E2000D093D301C093D201DF91CF910895A0E078
:100E3000B0E0EDE1F7E00C94F507EC01CB01209771
:100E400019F40E94F005B8C0FE01E60FF71F9E01DD
:100E500022503109E217F30708F4ACC0D9010D9113
:100E60001C91119706171707B8F00530110508F403
:100E70009FC0A801445051094617570708F498C06D
:100E800002501109061B170B019311936D937C936C
:100E9000CF010E9488068CC05B01A01AB10A4E01E6
:100EA000800E911EA091D401B091D501612C712CBE
:100EB00060E070E0109709F449C0A815B905C9F5BC
:100EC000ED90FC901197670142E0C40ED11CCA144A
:100ED000DB0478F147018A189B08640142E0C40EE4
:100EE000D11C1296BC9012971396AC91B5E0CB161C
:100EF000D10440F0B282A38391828082D9018D9384
:100F00009C9309C00E5F1F4F0E0D1F1DF901118329
:100F10000083EB2DFA2F6115710531F0DB0113967B
:100F2000FC93EE93129744C0F093D501E093D40163
:100F30003FC06D917C9111976616770608F43B01CE
:100F4000BD0112960D90BC91A02DB4CF6091D2013D
:100F50007091D30168157905E9F468167906D0F423
:100F600040910001509101014115510541F44DB7E7
:100F70005EB76091040170910501461B570BE417A1
:100F8000F507C0F4F093D301E093D201F901918306
:100F900080830EC00E94F0057C01009759F0A801E3
:100FA000BE010E94E107CE010E948806C70104C06D
:100FB000CE0102C080E090E0CDB7DEB7EEE00C9449
:100FC0001108FB01DC0102C001900D92415050401C
:100FD000D8F70895FB01DC0101900D920020E1F7A4
:100FE00008952F923F924F925F926F927F928F92CD
:100FF0009F92AF92BF92CF92DF92EF92FF920F93A8
:101000001F93CF93DF93CDB7DEB7CA1BDB0B0FB6B1
:10101000F894DEBF0FBECDBF09942A88398848886E
:101020005F846E847D848C849B84AA84B984C88404
:10103000DF80EE80FD800C811B81AA81B981CE0FFB
:10104000D11D0FB6F894DEBF0FBECDBFED010895E0
:1010500010E0CCEBD0E004C0FE010E94EC0522962B
:0A106000CE3BD107C9F7F894FFCF8B
:10106A000000D6018000EE28CD6D2B67E72CEF6FCC
:10107A0000000000003803A404BA02D302C5021615
:02108A00030061
:107E0000112484B714BE81FFF0D085E080938100F7
:107E100082E08093C00088E18093C10086E0809377
:107E2000C20080E18093C4008EE0C9D0259A86E02C
:107E300020E33CEF91E0309385002093840096BBD3
:107E4000B09BFECF1D9AA8958150A9F7CC24DD24C4
:107E500088248394B5E0AB2EA1E19A2EF3E0BF2EE7
:107E6000A2D0813461F49FD0082FAFD0023811F036
:107E7000013811F484E001C083E08DD089C08234E0
:107E800011F484E103C0853419F485E0A6D080C0E4
:107E9000853579F488D0E82EFF2485D0082F10E0AE
:107EA000102F00270E291F29000F111F8ED06801E7
:107EB0006FC0863521F484E090D080E0DECF843638
:107EC00009F040C070D06FD0082F6DD080E0C81688
:107ED00080E7D80618F4F601B7BEE895C0E0D1E017
:107EE00062D089930C17E1F7F0E0CF16F0E7DF06D8
:107EF00018F0F601B7BEE89568D007B600FCFDCFD4
:107F0000A601A0E0B1E02C9130E011968C91119780
:107F100090E0982F8827822B932B1296FA010C0160
:107F200087BEE89511244E5F5F4FF1E0A038BF0790
:107F300051F7F601A7BEE89507B600FCFDCF97BE46
:107F4000E89526C08437B1F42ED02DD0F82E2BD052
:107F50003CD0F601EF2C8F010F5F1F4F84911BD097
:107F6000EA94F801C1F70894C11CD11CFA94CF0C13
:107F7000D11C0EC0853739F428D08EE10CD085E9AC
:107F80000AD08FE07ACF813511F488E018D01DD067
:107F900080E101D065CF982F8091C00085FFFCCF94
:107FA0009093C60008958091C00087FFFCCF809118
:107FB000C00084FD01C0A8958091C6000895E0E648
:107FC000F0E098E1908380830895EDDF803219F02E
:107FD00088E0F5DFFFCF84E1DECF1F93182FE3DFCA
:107FE0001150E9F7F2DF1F91089580E0E8DFEE27F6
:047FF000FF270994CA
:027FFE00040479
:0400000300007E007B
:00000001FF
